{
  "_format": "hh-sol-artifact-1",
  "contractName": "Sugesto",
  "sourceName": "contracts/Sugesto.sol",
  "abi": [
    {
      "inputs": [
        {
          "internalType": "address",
          "name": "zkGroupsAddress",
          "type": "address"
        }
      ],
      "stateMutability": "nonpayable",
      "type": "constructor"
    },
    {
      "inputs": [],
      "name": "Sugesto__FeedbackLimitExceeded",
      "type": "error"
    },
    {
      "anonymous": false,
      "inputs": [
        {
          "indexed": false,
          "internalType": "uint256[]",
          "name": "feedbackHashes",
          "type": "uint256[]"
        }
      ],
      "name": "BlacklistedFeedback",
      "type": "event"
    },
    {
      "anonymous": false,
      "inputs": [
        {
          "indexed": false,
          "internalType": "string",
          "name": "feedback",
          "type": "string"
        }
      ],
      "name": "NewFeedback",
      "type": "event"
    },
    {
      "anonymous": false,
      "inputs": [
        {
          "indexed": true,
          "internalType": "address",
          "name": "previousOwner",
          "type": "address"
        },
        {
          "indexed": true,
          "internalType": "address",
          "name": "newOwner",
          "type": "address"
        }
      ],
      "name": "OwnershipTransferred",
      "type": "event"
    },
    {
      "inputs": [
        {
          "internalType": "uint256[]",
          "name": "feedbackHashes",
          "type": "uint256[]"
        }
      ],
      "name": "blacklistFeedback",
      "outputs": [],
      "stateMutability": "nonpayable",
      "type": "function"
    },
    {
      "inputs": [],
      "name": "owner",
      "outputs": [
        {
          "internalType": "address",
          "name": "",
          "type": "address"
        }
      ],
      "stateMutability": "view",
      "type": "function"
    },
    {
      "inputs": [],
      "name": "renounceOwnership",
      "outputs": [],
      "stateMutability": "nonpayable",
      "type": "function"
    },
    {
      "inputs": [
        {
          "internalType": "uint256",
          "name": "groupId",
          "type": "uint256"
        },
        {
          "internalType": "uint256",
          "name": "merkleTreeDepth",
          "type": "uint256"
        },
        {
          "internalType": "string",
          "name": "feedback",
          "type": "string"
        },
        {
          "internalType": "uint8",
          "name": "feedbackNumber",
          "type": "uint8"
        },
        {
          "internalType": "uint256",
          "name": "nullifierHash",
          "type": "uint256"
        },
        {
          "internalType": "uint256[8]",
          "name": "proof",
          "type": "uint256[8]"
        }
      ],
      "name": "sendFeedback",
      "outputs": [],
      "stateMutability": "nonpayable",
      "type": "function"
    },
    {
      "inputs": [
        {
          "internalType": "address",
          "name": "newOwner",
          "type": "address"
        }
      ],
      "name": "transferOwnership",
      "outputs": [],
      "stateMutability": "nonpayable",
      "type": "function"
    },
    {
      "inputs": [],
      "name": "zkGroupsSemaphore",
      "outputs": [
        {
          "internalType": "contract IZKGroupsSemaphore",
          "name": "",
          "type": "address"
        }
      ],
      "stateMutability": "view",
      "type": "function"
    }
  ],
  "bytecode": "0x608060405234801561001057600080fd5b50604051610cef380380610cef83398181016040528101906100329190610176565b61004e61004361009560201b60201c565b61009d60201b60201c565b80600160006101000a81548173ffffffffffffffffffffffffffffffffffffffff021916908373ffffffffffffffffffffffffffffffffffffffff160217905550506101e8565b600033905090565b60008060009054906101000a900473ffffffffffffffffffffffffffffffffffffffff169050816000806101000a81548173ffffffffffffffffffffffffffffffffffffffff021916908373ffffffffffffffffffffffffffffffffffffffff1602179055508173ffffffffffffffffffffffffffffffffffffffff168173ffffffffffffffffffffffffffffffffffffffff167f8be0079c531659141344cd1fd0a4f28419497f9722a3daafe3b4186f6b6457e060405160405180910390a35050565b600081519050610170816101d1565b92915050565b60006020828403121561018857600080fd5b600061019684828501610161565b91505092915050565b60006101aa826101b1565b9050919050565b600073ffffffffffffffffffffffffffffffffffffffff82169050919050565b6101da8161019f565b81146101e557600080fd5b50565b610af8806101f76000396000f3fe608060405234801561001057600080fd5b50600436106100625760003560e01c806308be810d14610067578063715018a61461008357806386080ef31461008d5780638da5cb5b146100ab578063c6e9a094146100c9578063f2fde38b146100e5575b600080fd5b610081600480360381019061007c919061061b565b610101565b005b61008b610246565b005b61009561025a565b6040516100a29190610858565b60405180910390f35b6100b3610280565b6040516100c09190610819565b60405180910390f35b6100e360048036038101906100de91906105d6565b6102a9565b005b6100ff60048036038101906100fa91906105ad565b6102ee565b005b600360ff168360ff161115610142576040517fd638518700000000000000000000000000000000000000000000000000000000815260040160405180910390fd5b600160009054906101000a900473ffffffffffffffffffffffffffffffffffffffff1673ffffffffffffffffffffffffffffffffffffffff16633bc778e388888888604051602001610195929190610800565b6040516020818303038152906040528051906020012060001c8688876040518763ffffffff1660e01b81526004016101d2969594939291906108d7565b600060405180830381600087803b1580156101ec57600080fd5b505af1158015610200573d6000803e3d6000fd5b505050507fd936384985fbeb5485277e7930761ee4a85ee145bd3f905ca7c36f6021af5c7f8585604051610235929190610873565b60405180910390a150505050505050565b61024e610372565b61025860006103f0565b565b600160009054906101000a900473ffffffffffffffffffffffffffffffffffffffff1681565b60008060009054906101000a900473ffffffffffffffffffffffffffffffffffffffff16905090565b6102b1610372565b7f546e04ad082cf46e5f952c59ccd6fc961c91d5d0d77f6eb7580da285a2e536b682826040516102e2929190610834565b60405180910390a15050565b6102f6610372565b600073ffffffffffffffffffffffffffffffffffffffff168173ffffffffffffffffffffffffffffffffffffffff161415610366576040517f08c379a000000000000000000000000000000000000000000000000000000000815260040161035d90610897565b60405180910390fd5b61036f816103f0565b50565b61037a6104b4565b73ffffffffffffffffffffffffffffffffffffffff16610398610280565b73ffffffffffffffffffffffffffffffffffffffff16146103ee576040517f08c379a00000000000000000000000000000000000000000000000000000000081526004016103e5906108b7565b60405180910390fd5b565b60008060009054906101000a900473ffffffffffffffffffffffffffffffffffffffff169050816000806101000a81548173ffffffffffffffffffffffffffffffffffffffff021916908373ffffffffffffffffffffffffffffffffffffffff1602179055508173ffffffffffffffffffffffffffffffffffffffff168173ffffffffffffffffffffffffffffffffffffffff167f8be0079c531659141344cd1fd0a4f28419497f9722a3daafe3b4186f6b6457e060405160405180910390a35050565b600033905090565b6000813590506104cb81610a7d565b92915050565b6000819050826020600802820111156104e957600080fd5b92915050565b60008083601f84011261050157600080fd5b8235905067ffffffffffffffff81111561051a57600080fd5b60208301915083602082028301111561053257600080fd5b9250929050565b60008083601f84011261054b57600080fd5b8235905067ffffffffffffffff81111561056457600080fd5b60208301915083600182028301111561057c57600080fd5b9250929050565b60008135905061059281610a94565b92915050565b6000813590506105a781610aab565b92915050565b6000602082840312156105bf57600080fd5b60006105cd848285016104bc565b91505092915050565b600080602083850312156105e957600080fd5b600083013567ffffffffffffffff81111561060357600080fd5b61060f858286016104ef565b92509250509250929050565b60008060008060008060006101a0888a03121561063757600080fd5b60006106458a828b01610583565b97505060206106568a828b01610583565b965050604088013567ffffffffffffffff81111561067357600080fd5b61067f8a828b01610539565b955095505060606106928a828b01610598565b93505060806106a38a828b01610583565b92505060a06106b48a828b016104d1565b91505092959891949750929550565b6106cc81610966565b82525050565b6106df61010083836109e5565b5050565b60006106ef8385610939565b93507f07ffffffffffffffffffffffffffffffffffffffffffffffffffffffffffffff83111561071e57600080fd5b60208302925061072f8385846109e5565b82840190509392505050565b610744816109af565b82525050565b6000610756838561094a565b93506107638385846109e5565b61076c836109f4565b840190509392505050565b6000610783838561095b565b93506107908385846109e5565b82840190509392505050565b60006107a960268361094a565b91506107b482610a05565b604082019050919050565b60006107cc60208361094a565b91506107d782610a54565b602082019050919050565b6107eb81610998565b82525050565b6107fa816109d3565b82525050565b600061080d828486610777565b91508190509392505050565b600060208201905061082e60008301846106c3565b92915050565b6000602082019050818103600083015261084f8184866106e3565b90509392505050565b600060208201905061086d600083018461073b565b92915050565b6000602082019050818103600083015261088e81848661074a565b90509392505050565b600060208201905081810360008301526108b08161079c565b9050919050565b600060208201905081810360008301526108d0816107bf565b9050919050565b60006101a0820190506108ed60008301896107e2565b6108fa60208301886107e2565b61090760408301876107e2565b61091460608301866107e2565b61092160808301856107f1565b61092e60a08301846106d2565b979650505050505050565b600082825260208201905092915050565b600082825260208201905092915050565b600081905092915050565b600061097182610978565b9050919050565b600073ffffffffffffffffffffffffffffffffffffffff82169050919050565b6000819050919050565b600060ff82169050919050565b60006109ba826109c1565b9050919050565b60006109cc82610978565b9050919050565b60006109de826109a2565b9050919050565b82818337600083830152505050565b6000601f19601f8301169050919050565b7f4f776e61626c653a206e6577206f776e657220697320746865207a65726f206160008201527f6464726573730000000000000000000000000000000000000000000000000000602082015250565b7f4f776e61626c653a2063616c6c6572206973206e6f7420746865206f776e6572600082015250565b610a8681610966565b8114610a9157600080fd5b50565b610a9d81610998565b8114610aa857600080fd5b50565b610ab4816109a2565b8114610abf57600080fd5b5056fea2646970667358221220dda1834d916747780bd8bab198e632b0ccd8abdd4412754c12155415105fcbe764736f6c63430008040033",
  "linkReferences": {},
  "deployedLinkReferences": {}
}