{
  "_format": "hh-sol-artifact-1",
  "contractName": "Sugesto",
  "sourceName": "contracts/Sugesto.sol",
  "abi": [
    {
      "inputs": [
        {
          "internalType": "address",
          "name": "zkGroupsAddress",
          "type": "address"
        },
        {
          "internalType": "uint8",
          "name": "_feedbackLimit",
          "type": "uint8"
        }
      ],
      "stateMutability": "nonpayable",
      "type": "constructor"
    },
    {
      "inputs": [],
      "name": "Sugesto__FeedbackLimitExceeded",
      "type": "error"
    },
    {
      "anonymous": false,
      "inputs": [
        {
          "indexed": false,
          "internalType": "uint256[]",
          "name": "feedbackNullifierHashes",
          "type": "uint256[]"
        }
      ],
      "name": "BlacklistedFeedback",
      "type": "event"
    },
    {
      "anonymous": false,
      "inputs": [
        {
          "indexed": false,
          "internalType": "string",
          "name": "feedback",
          "type": "string"
        },
        {
          "indexed": false,
          "internalType": "uint256",
          "name": "nullifierHash",
          "type": "uint256"
        }
      ],
      "name": "NewFeedback",
      "type": "event"
    },
    {
      "anonymous": false,
      "inputs": [
        {
          "indexed": true,
          "internalType": "address",
          "name": "previousOwner",
          "type": "address"
        },
        {
          "indexed": true,
          "internalType": "address",
          "name": "newOwner",
          "type": "address"
        }
      ],
      "name": "OwnershipTransferred",
      "type": "event"
    },
    {
      "inputs": [
        {
          "internalType": "uint256[]",
          "name": "feedbackNullifierHashes",
          "type": "uint256[]"
        }
      ],
      "name": "blacklistFeedback",
      "outputs": [],
      "stateMutability": "nonpayable",
      "type": "function"
    },
    {
      "inputs": [],
      "name": "feedbackLimit",
      "outputs": [
        {
          "internalType": "uint8",
          "name": "",
          "type": "uint8"
        }
      ],
      "stateMutability": "view",
      "type": "function"
    },
    {
      "inputs": [],
      "name": "owner",
      "outputs": [
        {
          "internalType": "address",
          "name": "",
          "type": "address"
        }
      ],
      "stateMutability": "view",
      "type": "function"
    },
    {
      "inputs": [],
      "name": "renounceOwnership",
      "outputs": [],
      "stateMutability": "nonpayable",
      "type": "function"
    },
    {
      "inputs": [
        {
          "internalType": "uint256",
          "name": "groupId",
          "type": "uint256"
        },
        {
          "internalType": "uint256",
          "name": "merkleTreeDepth",
          "type": "uint256"
        },
        {
          "internalType": "string",
          "name": "feedback",
          "type": "string"
        },
        {
          "internalType": "uint8",
          "name": "feedbackNumber",
          "type": "uint8"
        },
        {
          "internalType": "uint256",
          "name": "nullifierHash",
          "type": "uint256"
        },
        {
          "internalType": "uint256[8]",
          "name": "proof",
          "type": "uint256[8]"
        }
      ],
      "name": "sendFeedback",
      "outputs": [],
      "stateMutability": "nonpayable",
      "type": "function"
    },
    {
      "inputs": [
        {
          "internalType": "address",
          "name": "newOwner",
          "type": "address"
        }
      ],
      "name": "transferOwnership",
      "outputs": [],
      "stateMutability": "nonpayable",
      "type": "function"
    },
    {
      "inputs": [
        {
          "internalType": "uint8",
          "name": "newLimit",
          "type": "uint8"
        }
      ],
      "name": "updateFeedbackLimit",
      "outputs": [],
      "stateMutability": "nonpayable",
      "type": "function"
    },
    {
      "inputs": [],
      "name": "zkGroupsSemaphore",
      "outputs": [
        {
          "internalType": "contract IZKGroupsSemaphore",
          "name": "",
          "type": "address"
        }
      ],
      "stateMutability": "view",
      "type": "function"
    }
  ],
  "bytecode": "0x60806040523480156200001157600080fd5b5060405162000e7d38038062000e7d8339818101604052810190620000379190620001b5565b620000576200004b620000bb60201b60201c565b620000c360201b60201c565b81600160006101000a81548173ffffffffffffffffffffffffffffffffffffffff021916908373ffffffffffffffffffffffffffffffffffffffff16021790555080600060146101000a81548160ff021916908360ff16021790555050506200026b565b600033905090565b60008060009054906101000a900473ffffffffffffffffffffffffffffffffffffffff169050816000806101000a81548173ffffffffffffffffffffffffffffffffffffffff021916908373ffffffffffffffffffffffffffffffffffffffff1602179055508173ffffffffffffffffffffffffffffffffffffffff168173ffffffffffffffffffffffffffffffffffffffff167f8be0079c531659141344cd1fd0a4f28419497f9722a3daafe3b4186f6b6457e060405160405180910390a35050565b600081519050620001988162000237565b92915050565b600081519050620001af8162000251565b92915050565b60008060408385031215620001c957600080fd5b6000620001d98582860162000187565b9250506020620001ec858286016200019e565b9150509250929050565b600062000203826200020a565b9050919050565b600073ffffffffffffffffffffffffffffffffffffffff82169050919050565b600060ff82169050919050565b6200024281620001f6565b81146200024e57600080fd5b50565b6200025c816200022a565b81146200026857600080fd5b50565b610c02806200027b6000396000f3fe608060405234801561001057600080fd5b50600436106100885760003560e01c80638da5cb5b1161005b5780638da5cb5b146100ed578063c6e9a0941461010b578063f2fde38b14610127578063fe9e8b2a1461014357610088565b806308be810d1461008d5780630eb90630146100a9578063715018a6146100c557806386080ef3146100cf575b600080fd5b6100a760048036038101906100a291906106c4565b610161565b005b6100c360048036038101906100be919061076c565b6102b6565b005b6100cd6102dc565b005b6100d76102f0565b6040516100e49190610939565b60405180910390f35b6100f5610316565b60405161010291906108fa565b60405180910390f35b6101256004803603810190610120919061067f565b61033f565b005b610141600480360381019061013c9190610656565b610384565b005b61014b610408565b6040516101589190610a28565b60405180910390f35b600060149054906101000a900460ff1660ff168360ff1611156101b0576040517fd638518700000000000000000000000000000000000000000000000000000000815260040160405180910390fd5b600160009054906101000a900473ffffffffffffffffffffffffffffffffffffffff1673ffffffffffffffffffffffffffffffffffffffff16633bc778e3888888886040516020016102039291906108e1565b6040516020818303038152906040528051906020012060001c8688876040518763ffffffff1660e01b8152600401610240969594939291906109c6565b600060405180830381600087803b15801561025a57600080fd5b505af115801561026e573d6000803e3d6000fd5b505050507f208818c533c1d4e300aeed2fa67423da845494524e65d03794030d14c017e1f58585846040516102a593929190610954565b60405180910390a150505050505050565b6102be61041b565b80600060146101000a81548160ff021916908360ff16021790555050565b6102e461041b565b6102ee6000610499565b565b600160009054906101000a900473ffffffffffffffffffffffffffffffffffffffff1681565b60008060009054906101000a900473ffffffffffffffffffffffffffffffffffffffff16905090565b61034761041b565b7f546e04ad082cf46e5f952c59ccd6fc961c91d5d0d77f6eb7580da285a2e536b68282604051610378929190610915565b60405180910390a15050565b61038c61041b565b600073ffffffffffffffffffffffffffffffffffffffff168173ffffffffffffffffffffffffffffffffffffffff1614156103fc576040517f08c379a00000000000000000000000000000000000000000000000000000000081526004016103f390610986565b60405180910390fd5b61040581610499565b50565b600060149054906101000a900460ff1681565b61042361055d565b73ffffffffffffffffffffffffffffffffffffffff16610441610316565b73ffffffffffffffffffffffffffffffffffffffff1614610497576040517f08c379a000000000000000000000000000000000000000000000000000000000815260040161048e906109a6565b60405180910390fd5b565b60008060009054906101000a900473ffffffffffffffffffffffffffffffffffffffff169050816000806101000a81548173ffffffffffffffffffffffffffffffffffffffff021916908373ffffffffffffffffffffffffffffffffffffffff1602179055508173ffffffffffffffffffffffffffffffffffffffff168173ffffffffffffffffffffffffffffffffffffffff167f8be0079c531659141344cd1fd0a4f28419497f9722a3daafe3b4186f6b6457e060405160405180910390a35050565b600033905090565b60008135905061057481610b87565b92915050565b60008190508260206008028201111561059257600080fd5b92915050565b60008083601f8401126105aa57600080fd5b8235905067ffffffffffffffff8111156105c357600080fd5b6020830191508360208202830111156105db57600080fd5b9250929050565b60008083601f8401126105f457600080fd5b8235905067ffffffffffffffff81111561060d57600080fd5b60208301915083600182028301111561062557600080fd5b9250929050565b60008135905061063b81610b9e565b92915050565b60008135905061065081610bb5565b92915050565b60006020828403121561066857600080fd5b600061067684828501610565565b91505092915050565b6000806020838503121561069257600080fd5b600083013567ffffffffffffffff8111156106ac57600080fd5b6106b885828601610598565b92509250509250929050565b60008060008060008060006101a0888a0312156106e057600080fd5b60006106ee8a828b0161062c565b97505060206106ff8a828b0161062c565b965050604088013567ffffffffffffffff81111561071c57600080fd5b6107288a828b016105e2565b9550955050606061073b8a828b01610641565b935050608061074c8a828b0161062c565b92505060a061075d8a828b0161057a565b91505092959891949750929550565b60006020828403121561077e57600080fd5b600061078c84828501610641565b91505092915050565b61079e81610a70565b82525050565b6107b16101008383610aef565b5050565b60006107c18385610a43565b93507f07ffffffffffffffffffffffffffffffffffffffffffffffffffffffffffffff8311156107f057600080fd5b602083029250610801838584610aef565b82840190509392505050565b61081681610ab9565b82525050565b60006108288385610a54565b9350610835838584610aef565b61083e83610afe565b840190509392505050565b60006108558385610a65565b9350610862838584610aef565b82840190509392505050565b600061087b602683610a54565b915061088682610b0f565b604082019050919050565b600061089e602083610a54565b91506108a982610b5e565b602082019050919050565b6108bd81610aa2565b82525050565b6108cc81610add565b82525050565b6108db81610aac565b82525050565b60006108ee828486610849565b91508190509392505050565b600060208201905061090f6000830184610795565b92915050565b600060208201905081810360008301526109308184866107b5565b90509392505050565b600060208201905061094e600083018461080d565b92915050565b6000604082019050818103600083015261096f81858761081c565b905061097e60208301846108b4565b949350505050565b6000602082019050818103600083015261099f8161086e565b9050919050565b600060208201905081810360008301526109bf81610891565b9050919050565b60006101a0820190506109dc60008301896108b4565b6109e960208301886108b4565b6109f660408301876108b4565b610a0360608301866108b4565b610a1060808301856108c3565b610a1d60a08301846107a4565b979650505050505050565b6000602082019050610a3d60008301846108d2565b92915050565b600082825260208201905092915050565b600082825260208201905092915050565b600081905092915050565b6000610a7b82610a82565b9050919050565b600073ffffffffffffffffffffffffffffffffffffffff82169050919050565b6000819050919050565b600060ff82169050919050565b6000610ac482610acb565b9050919050565b6000610ad682610a82565b9050919050565b6000610ae882610aac565b9050919050565b82818337600083830152505050565b6000601f19601f8301169050919050565b7f4f776e61626c653a206e6577206f776e657220697320746865207a65726f206160008201527f6464726573730000000000000000000000000000000000000000000000000000602082015250565b7f4f776e61626c653a2063616c6c6572206973206e6f7420746865206f776e6572600082015250565b610b9081610a70565b8114610b9b57600080fd5b50565b610ba781610aa2565b8114610bb257600080fd5b50565b610bbe81610aac565b8114610bc957600080fd5b5056fea26469706673582212203710b9ce23320d324d4e392e6791c68f1860610eb94bf71d057bc64bd7abde4364736f6c63430008040033",
  "linkReferences": {},
  "deployedLinkReferences": {}
}