{
  "_format": "hh-sol-artifact-1",
  "contractName": "Sugesto",
  "sourceName": "contracts/Sugesto.sol",
  "abi": [
    {
      "inputs": [
        {
          "internalType": "address",
          "name": "zkGroupsAddress",
          "type": "address"
        },
        {
          "internalType": "uint8",
          "name": "_feedbackLimit",
          "type": "uint8"
        }
      ],
      "stateMutability": "nonpayable",
      "type": "constructor"
    },
    {
      "inputs": [],
      "name": "Sugesto__FeedbackLimitExceeded",
      "type": "error"
    },
    {
      "anonymous": false,
      "inputs": [
        {
          "indexed": false,
          "internalType": "uint256[]",
          "name": "feedbackNullifierHashes",
          "type": "uint256[]"
        }
      ],
      "name": "BlacklistedFeedback",
      "type": "event"
    },
    {
      "anonymous": false,
      "inputs": [
        {
          "indexed": false,
          "internalType": "string",
          "name": "feedback",
          "type": "string"
        },
        {
          "indexed": false,
          "internalType": "uint256",
          "name": "nullifierHash",
          "type": "uint256"
        }
      ],
      "name": "NewFeedback",
      "type": "event"
    },
    {
      "anonymous": false,
      "inputs": [
        {
          "indexed": true,
          "internalType": "address",
          "name": "previousOwner",
          "type": "address"
        },
        {
          "indexed": true,
          "internalType": "address",
          "name": "newOwner",
          "type": "address"
        }
      ],
      "name": "OwnershipTransferred",
      "type": "event"
    },
    {
      "inputs": [
        {
          "internalType": "uint256[]",
          "name": "feedbackNullifierHashes",
          "type": "uint256[]"
        }
      ],
      "name": "blacklistFeedback",
      "outputs": [],
      "stateMutability": "nonpayable",
      "type": "function"
    },
    {
      "inputs": [],
      "name": "owner",
      "outputs": [
        {
          "internalType": "address",
          "name": "",
          "type": "address"
        }
      ],
      "stateMutability": "view",
      "type": "function"
    },
    {
      "inputs": [],
      "name": "renounceOwnership",
      "outputs": [],
      "stateMutability": "nonpayable",
      "type": "function"
    },
    {
      "inputs": [
        {
          "internalType": "uint256",
          "name": "groupId",
          "type": "uint256"
        },
        {
          "internalType": "uint256",
          "name": "merkleTreeDepth",
          "type": "uint256"
        },
        {
          "internalType": "string",
          "name": "feedback",
          "type": "string"
        },
        {
          "internalType": "uint8",
          "name": "feedbackNumber",
          "type": "uint8"
        },
        {
          "internalType": "uint256",
          "name": "nullifierHash",
          "type": "uint256"
        },
        {
          "internalType": "uint256[8]",
          "name": "proof",
          "type": "uint256[8]"
        }
      ],
      "name": "sendFeedback",
      "outputs": [],
      "stateMutability": "nonpayable",
      "type": "function"
    },
    {
      "inputs": [
        {
          "internalType": "address",
          "name": "newOwner",
          "type": "address"
        }
      ],
      "name": "transferOwnership",
      "outputs": [],
      "stateMutability": "nonpayable",
      "type": "function"
    },
    {
      "inputs": [
        {
          "internalType": "uint8",
          "name": "newLimit",
          "type": "uint8"
        }
      ],
      "name": "updateFeedbackLimit",
      "outputs": [],
      "stateMutability": "nonpayable",
      "type": "function"
    },
    {
      "inputs": [],
      "name": "zkGroupsSemaphore",
      "outputs": [
        {
          "internalType": "contract IZKGroupsSemaphore",
          "name": "",
          "type": "address"
        }
      ],
      "stateMutability": "view",
      "type": "function"
    }
  ],
  "bytecode": "0x60806040523480156200001157600080fd5b5060405162000e1738038062000e178339818101604052810190620000379190620001b5565b620000576200004b620000bb60201b60201c565b620000c360201b60201c565b81600160006101000a81548173ffffffffffffffffffffffffffffffffffffffff021916908373ffffffffffffffffffffffffffffffffffffffff16021790555080600060146101000a81548160ff021916908360ff16021790555050506200026b565b600033905090565b60008060009054906101000a900473ffffffffffffffffffffffffffffffffffffffff169050816000806101000a81548173ffffffffffffffffffffffffffffffffffffffff021916908373ffffffffffffffffffffffffffffffffffffffff1602179055508173ffffffffffffffffffffffffffffffffffffffff168173ffffffffffffffffffffffffffffffffffffffff167f8be0079c531659141344cd1fd0a4f28419497f9722a3daafe3b4186f6b6457e060405160405180910390a35050565b600081519050620001988162000237565b92915050565b600081519050620001af8162000251565b92915050565b60008060408385031215620001c957600080fd5b6000620001d98582860162000187565b9250506020620001ec858286016200019e565b9150509250929050565b600062000203826200020a565b9050919050565b600073ffffffffffffffffffffffffffffffffffffffff82169050919050565b600060ff82169050919050565b6200024281620001f6565b81146200024e57600080fd5b50565b6200025c816200022a565b81146200026857600080fd5b50565b610b9c806200027b6000396000f3fe608060405234801561001057600080fd5b506004361061007d5760003560e01c806386080ef31161005b57806386080ef3146100c45780638da5cb5b146100e2578063c6e9a09414610100578063f2fde38b1461011c5761007d565b806308be810d146100825780630eb906301461009e578063715018a6146100ba575b600080fd5b61009c60048036038101906100979190610688565b610138565b005b6100b860048036038101906100b39190610730565b61028d565b005b6100c26102b3565b005b6100cc6102c7565b6040516100d991906108ee565b60405180910390f35b6100ea6102ed565b6040516100f791906108af565b60405180910390f35b61011a60048036038101906101159190610643565b610316565b005b6101366004803603810190610131919061061a565b61035b565b005b600060149054906101000a900460ff1660ff168360ff161115610187576040517fd638518700000000000000000000000000000000000000000000000000000000815260040160405180910390fd5b600160009054906101000a900473ffffffffffffffffffffffffffffffffffffffff1673ffffffffffffffffffffffffffffffffffffffff16633bc778e3888888886040516020016101da929190610896565b6040516020818303038152906040528051906020012060001c8688876040518763ffffffff1660e01b81526004016102179695949392919061097b565b600060405180830381600087803b15801561023157600080fd5b505af1158015610245573d6000803e3d6000fd5b505050507f208818c533c1d4e300aeed2fa67423da845494524e65d03794030d14c017e1f585858460405161027c93929190610909565b60405180910390a150505050505050565b6102956103df565b80600060146101000a81548160ff021916908360ff16021790555050565b6102bb6103df565b6102c5600061045d565b565b600160009054906101000a900473ffffffffffffffffffffffffffffffffffffffff1681565b60008060009054906101000a900473ffffffffffffffffffffffffffffffffffffffff16905090565b61031e6103df565b7f546e04ad082cf46e5f952c59ccd6fc961c91d5d0d77f6eb7580da285a2e536b6828260405161034f9291906108ca565b60405180910390a15050565b6103636103df565b600073ffffffffffffffffffffffffffffffffffffffff168173ffffffffffffffffffffffffffffffffffffffff1614156103d3576040517f08c379a00000000000000000000000000000000000000000000000000000000081526004016103ca9061093b565b60405180910390fd5b6103dc8161045d565b50565b6103e7610521565b73ffffffffffffffffffffffffffffffffffffffff166104056102ed565b73ffffffffffffffffffffffffffffffffffffffff161461045b576040517f08c379a00000000000000000000000000000000000000000000000000000000081526004016104529061095b565b60405180910390fd5b565b60008060009054906101000a900473ffffffffffffffffffffffffffffffffffffffff169050816000806101000a81548173ffffffffffffffffffffffffffffffffffffffff021916908373ffffffffffffffffffffffffffffffffffffffff1602179055508173ffffffffffffffffffffffffffffffffffffffff168173ffffffffffffffffffffffffffffffffffffffff167f8be0079c531659141344cd1fd0a4f28419497f9722a3daafe3b4186f6b6457e060405160405180910390a35050565b600033905090565b60008135905061053881610b21565b92915050565b60008190508260206008028201111561055657600080fd5b92915050565b60008083601f84011261056e57600080fd5b8235905067ffffffffffffffff81111561058757600080fd5b60208301915083602082028301111561059f57600080fd5b9250929050565b60008083601f8401126105b857600080fd5b8235905067ffffffffffffffff8111156105d157600080fd5b6020830191508360018202830111156105e957600080fd5b9250929050565b6000813590506105ff81610b38565b92915050565b60008135905061061481610b4f565b92915050565b60006020828403121561062c57600080fd5b600061063a84828501610529565b91505092915050565b6000806020838503121561065657600080fd5b600083013567ffffffffffffffff81111561067057600080fd5b61067c8582860161055c565b92509250509250929050565b60008060008060008060006101a0888a0312156106a457600080fd5b60006106b28a828b016105f0565b97505060206106c38a828b016105f0565b965050604088013567ffffffffffffffff8111156106e057600080fd5b6106ec8a828b016105a6565b955095505060606106ff8a828b01610605565b93505060806107108a828b016105f0565b92505060a06107218a828b0161053e565b91505092959891949750929550565b60006020828403121561074257600080fd5b600061075084828501610605565b91505092915050565b61076281610a0a565b82525050565b6107756101008383610a89565b5050565b600061078583856109dd565b93507f07ffffffffffffffffffffffffffffffffffffffffffffffffffffffffffffff8311156107b457600080fd5b6020830292506107c5838584610a89565b82840190509392505050565b6107da81610a53565b82525050565b60006107ec83856109ee565b93506107f9838584610a89565b61080283610a98565b840190509392505050565b600061081983856109ff565b9350610826838584610a89565b82840190509392505050565b600061083f6026836109ee565b915061084a82610aa9565b604082019050919050565b60006108626020836109ee565b915061086d82610af8565b602082019050919050565b61088181610a3c565b82525050565b61089081610a77565b82525050565b60006108a382848661080d565b91508190509392505050565b60006020820190506108c46000830184610759565b92915050565b600060208201905081810360008301526108e5818486610779565b90509392505050565b600060208201905061090360008301846107d1565b92915050565b600060408201905081810360008301526109248185876107e0565b90506109336020830184610878565b949350505050565b6000602082019050818103600083015261095481610832565b9050919050565b6000602082019050818103600083015261097481610855565b9050919050565b60006101a0820190506109916000830189610878565b61099e6020830188610878565b6109ab6040830187610878565b6109b86060830186610878565b6109c56080830185610887565b6109d260a0830184610768565b979650505050505050565b600082825260208201905092915050565b600082825260208201905092915050565b600081905092915050565b6000610a1582610a1c565b9050919050565b600073ffffffffffffffffffffffffffffffffffffffff82169050919050565b6000819050919050565b600060ff82169050919050565b6000610a5e82610a65565b9050919050565b6000610a7082610a1c565b9050919050565b6000610a8282610a46565b9050919050565b82818337600083830152505050565b6000601f19601f8301169050919050565b7f4f776e61626c653a206e6577206f776e657220697320746865207a65726f206160008201527f6464726573730000000000000000000000000000000000000000000000000000602082015250565b7f4f776e61626c653a2063616c6c6572206973206e6f7420746865206f776e6572600082015250565b610b2a81610a0a565b8114610b3557600080fd5b50565b610b4181610a3c565b8114610b4c57600080fd5b50565b610b5881610a46565b8114610b6357600080fd5b5056fea2646970667358221220f5cfc6a4bc07a349852cd53417a1db345940baba8b019ba120ba8eb88e12787b64736f6c63430008040033",
  "linkReferences": {},
  "deployedLinkReferences": {}
}