{
  "_format": "hh-sol-artifact-1",
  "contractName": "Sugesto",
  "sourceName": "contracts/Sugesto.sol",
  "abi": [
    {
      "inputs": [
        {
          "internalType": "address",
          "name": "zkGroupsAddress",
          "type": "address"
        },
        {
          "internalType": "uint8",
          "name": "_feedbackLimit",
          "type": "uint8"
        }
      ],
      "stateMutability": "nonpayable",
      "type": "constructor"
    },
    {
      "inputs": [],
      "name": "Sugesto__FeedbackLimitExceeded",
      "type": "error"
    },
    {
      "anonymous": false,
      "inputs": [
        {
          "indexed": false,
          "internalType": "uint256[]",
          "name": "feedbackNullifierHashes",
          "type": "uint256[]"
        }
      ],
      "name": "BlacklistedFeedback",
      "type": "event"
    },
    {
      "anonymous": false,
      "inputs": [
        {
          "indexed": false,
          "internalType": "uint256",
          "name": "groupId",
          "type": "uint256"
        },
        {
          "indexed": false,
          "internalType": "string",
          "name": "feedback",
          "type": "string"
        },
        {
          "indexed": false,
          "internalType": "uint256",
          "name": "nullifierHash",
          "type": "uint256"
        }
      ],
      "name": "NewFeedback",
      "type": "event"
    },
    {
      "anonymous": false,
      "inputs": [
        {
          "indexed": true,
          "internalType": "address",
          "name": "previousOwner",
          "type": "address"
        },
        {
          "indexed": true,
          "internalType": "address",
          "name": "newOwner",
          "type": "address"
        }
      ],
      "name": "OwnershipTransferred",
      "type": "event"
    },
    {
      "inputs": [
        {
          "internalType": "uint256[]",
          "name": "feedbackNullifierHashes",
          "type": "uint256[]"
        }
      ],
      "name": "blacklistFeedback",
      "outputs": [],
      "stateMutability": "nonpayable",
      "type": "function"
    },
    {
      "inputs": [],
      "name": "feedbackLimit",
      "outputs": [
        {
          "internalType": "uint8",
          "name": "",
          "type": "uint8"
        }
      ],
      "stateMutability": "view",
      "type": "function"
    },
    {
      "inputs": [],
      "name": "owner",
      "outputs": [
        {
          "internalType": "address",
          "name": "",
          "type": "address"
        }
      ],
      "stateMutability": "view",
      "type": "function"
    },
    {
      "inputs": [],
      "name": "renounceOwnership",
      "outputs": [],
      "stateMutability": "nonpayable",
      "type": "function"
    },
    {
      "inputs": [
        {
          "internalType": "uint256",
          "name": "groupId",
          "type": "uint256"
        },
        {
          "internalType": "uint256",
          "name": "merkleTreeDepth",
          "type": "uint256"
        },
        {
          "internalType": "string",
          "name": "feedback",
          "type": "string"
        },
        {
          "internalType": "uint8",
          "name": "feedbackNumber",
          "type": "uint8"
        },
        {
          "internalType": "uint256",
          "name": "nullifierHash",
          "type": "uint256"
        },
        {
          "internalType": "uint256[8]",
          "name": "proof",
          "type": "uint256[8]"
        }
      ],
      "name": "sendFeedback",
      "outputs": [],
      "stateMutability": "nonpayable",
      "type": "function"
    },
    {
      "inputs": [
        {
          "internalType": "address",
          "name": "newOwner",
          "type": "address"
        }
      ],
      "name": "transferOwnership",
      "outputs": [],
      "stateMutability": "nonpayable",
      "type": "function"
    },
    {
      "inputs": [
        {
          "internalType": "uint8",
          "name": "newLimit",
          "type": "uint8"
        }
      ],
      "name": "updateFeedbackLimit",
      "outputs": [],
      "stateMutability": "nonpayable",
      "type": "function"
    },
    {
      "inputs": [],
      "name": "zkGroupsSemaphore",
      "outputs": [
        {
          "internalType": "contract IZKGroupsSemaphore",
          "name": "",
          "type": "address"
        }
      ],
      "stateMutability": "view",
      "type": "function"
    }
  ],
  "bytecode": "0x60806040523480156200001157600080fd5b5060405162000e8d38038062000e8d8339818101604052810190620000379190620001b5565b620000576200004b620000bb60201b60201c565b620000c360201b60201c565b81600160006101000a81548173ffffffffffffffffffffffffffffffffffffffff021916908373ffffffffffffffffffffffffffffffffffffffff16021790555080600060146101000a81548160ff021916908360ff16021790555050506200026b565b600033905090565b60008060009054906101000a900473ffffffffffffffffffffffffffffffffffffffff169050816000806101000a81548173ffffffffffffffffffffffffffffffffffffffff021916908373ffffffffffffffffffffffffffffffffffffffff1602179055508173ffffffffffffffffffffffffffffffffffffffff168173ffffffffffffffffffffffffffffffffffffffff167f8be0079c531659141344cd1fd0a4f28419497f9722a3daafe3b4186f6b6457e060405160405180910390a35050565b600081519050620001988162000237565b92915050565b600081519050620001af8162000251565b92915050565b60008060408385031215620001c957600080fd5b6000620001d98582860162000187565b9250506020620001ec858286016200019e565b9150509250929050565b600062000203826200020a565b9050919050565b600073ffffffffffffffffffffffffffffffffffffffff82169050919050565b600060ff82169050919050565b6200024281620001f6565b81146200024e57600080fd5b50565b6200025c816200022a565b81146200026857600080fd5b50565b610c12806200027b6000396000f3fe608060405234801561001057600080fd5b50600436106100885760003560e01c80638da5cb5b1161005b5780638da5cb5b146100ed578063c6e9a0941461010b578063f2fde38b14610127578063fe9e8b2a1461014357610088565b806308be810d1461008d5780630eb90630146100a9578063715018a6146100c557806386080ef3146100cf575b600080fd5b6100a760048036038101906100a291906106c6565b610161565b005b6100c360048036038101906100be919061076e565b6102b8565b005b6100cd6102de565b005b6100d76102f2565b6040516100e4919061093b565b60405180910390f35b6100f5610318565b60405161010291906108fc565b60405180910390f35b61012560048036038101906101209190610681565b610341565b005b610141600480360381019061013c9190610658565b610386565b005b61014b61040a565b6040516101589190610a38565b60405180910390f35b600060149054906101000a900460ff1660ff168360ff1611156101b0576040517fd638518700000000000000000000000000000000000000000000000000000000815260040160405180910390fd5b600160009054906101000a900473ffffffffffffffffffffffffffffffffffffffff1673ffffffffffffffffffffffffffffffffffffffff16633bc778e3888888886040516020016102039291906108e3565b6040516020818303038152906040528051906020012060001c8688876040518763ffffffff1660e01b8152600401610240969594939291906109d6565b600060405180830381600087803b15801561025a57600080fd5b505af115801561026e573d6000803e3d6000fd5b505050507fe3d8d8d0ee8f3bc7ed18ca64aa35581cebb66be036b45ea6309c5be50c7c739e878686856040516102a79493929190610996565b60405180910390a150505050505050565b6102c061041d565b80600060146101000a81548160ff021916908360ff16021790555050565b6102e661041d565b6102f0600061049b565b565b600160009054906101000a900473ffffffffffffffffffffffffffffffffffffffff1681565b60008060009054906101000a900473ffffffffffffffffffffffffffffffffffffffff16905090565b61034961041d565b7f546e04ad082cf46e5f952c59ccd6fc961c91d5d0d77f6eb7580da285a2e536b6828260405161037a929190610917565b60405180910390a15050565b61038e61041d565b600073ffffffffffffffffffffffffffffffffffffffff168173ffffffffffffffffffffffffffffffffffffffff1614156103fe576040517f08c379a00000000000000000000000000000000000000000000000000000000081526004016103f590610956565b60405180910390fd5b6104078161049b565b50565b600060149054906101000a900460ff1681565b61042561055f565b73ffffffffffffffffffffffffffffffffffffffff16610443610318565b73ffffffffffffffffffffffffffffffffffffffff1614610499576040517f08c379a000000000000000000000000000000000000000000000000000000000815260040161049090610976565b60405180910390fd5b565b60008060009054906101000a900473ffffffffffffffffffffffffffffffffffffffff169050816000806101000a81548173ffffffffffffffffffffffffffffffffffffffff021916908373ffffffffffffffffffffffffffffffffffffffff1602179055508173ffffffffffffffffffffffffffffffffffffffff168173ffffffffffffffffffffffffffffffffffffffff167f8be0079c531659141344cd1fd0a4f28419497f9722a3daafe3b4186f6b6457e060405160405180910390a35050565b600033905090565b60008135905061057681610b97565b92915050565b60008190508260206008028201111561059457600080fd5b92915050565b60008083601f8401126105ac57600080fd5b8235905067ffffffffffffffff8111156105c557600080fd5b6020830191508360208202830111156105dd57600080fd5b9250929050565b60008083601f8401126105f657600080fd5b8235905067ffffffffffffffff81111561060f57600080fd5b60208301915083600182028301111561062757600080fd5b9250929050565b60008135905061063d81610bae565b92915050565b60008135905061065281610bc5565b92915050565b60006020828403121561066a57600080fd5b600061067884828501610567565b91505092915050565b6000806020838503121561069457600080fd5b600083013567ffffffffffffffff8111156106ae57600080fd5b6106ba8582860161059a565b92509250509250929050565b60008060008060008060006101a0888a0312156106e257600080fd5b60006106f08a828b0161062e565b97505060206107018a828b0161062e565b965050604088013567ffffffffffffffff81111561071e57600080fd5b61072a8a828b016105e4565b9550955050606061073d8a828b01610643565b935050608061074e8a828b0161062e565b92505060a061075f8a828b0161057c565b91505092959891949750929550565b60006020828403121561078057600080fd5b600061078e84828501610643565b91505092915050565b6107a081610a80565b82525050565b6107b36101008383610aff565b5050565b60006107c38385610a53565b93507f07ffffffffffffffffffffffffffffffffffffffffffffffffffffffffffffff8311156107f257600080fd5b602083029250610803838584610aff565b82840190509392505050565b61081881610ac9565b82525050565b600061082a8385610a64565b9350610837838584610aff565b61084083610b0e565b840190509392505050565b60006108578385610a75565b9350610864838584610aff565b82840190509392505050565b600061087d602683610a64565b915061088882610b1f565b604082019050919050565b60006108a0602083610a64565b91506108ab82610b6e565b602082019050919050565b6108bf81610ab2565b82525050565b6108ce81610aed565b82525050565b6108dd81610abc565b82525050565b60006108f082848661084b565b91508190509392505050565b60006020820190506109116000830184610797565b92915050565b600060208201905081810360008301526109328184866107b7565b90509392505050565b6000602082019050610950600083018461080f565b92915050565b6000602082019050818103600083015261096f81610870565b9050919050565b6000602082019050818103600083015261098f81610893565b9050919050565b60006060820190506109ab60008301876108b6565b81810360208301526109be81858761081e565b90506109cd60408301846108b6565b95945050505050565b60006101a0820190506109ec60008301896108b6565b6109f960208301886108b6565b610a0660408301876108b6565b610a1360608301866108b6565b610a2060808301856108c5565b610a2d60a08301846107a6565b979650505050505050565b6000602082019050610a4d60008301846108d4565b92915050565b600082825260208201905092915050565b600082825260208201905092915050565b600081905092915050565b6000610a8b82610a92565b9050919050565b600073ffffffffffffffffffffffffffffffffffffffff82169050919050565b6000819050919050565b600060ff82169050919050565b6000610ad482610adb565b9050919050565b6000610ae682610a92565b9050919050565b6000610af882610abc565b9050919050565b82818337600083830152505050565b6000601f19601f8301169050919050565b7f4f776e61626c653a206e6577206f776e657220697320746865207a65726f206160008201527f6464726573730000000000000000000000000000000000000000000000000000602082015250565b7f4f776e61626c653a2063616c6c6572206973206e6f7420746865206f776e6572600082015250565b610ba081610a80565b8114610bab57600080fd5b50565b610bb781610ab2565b8114610bc257600080fd5b50565b610bce81610abc565b8114610bd957600080fd5b5056fea264697066735822122064846ac4cd2ec84f3b622a483a24aa391f59c922a7bcbc6e95311c2b3f67bc2a64736f6c63430008040033",
  "linkReferences": {},
  "deployedLinkReferences": {}
}